:100000000C942A000C947A0C0C9447000C94470032
:100010000C9447000C9447000C9447000C94470044
:100020000C9447000C9447000C9447000C94470034
:100030000C9447000C9447000C9447000C94470024
:100040000C9447000C9447000C9447000C94470014
:100050000C94470011241FBECFE5D8E0DEBFCDBF12
:1000600011E0A8E6B1E001C01D92A936B107E1F7A1
:1000700011E0A0E6B0E0E8E2FCE102C005900D92DC
:10008000A836B107D9F70E94AF0D0C94120E0C944C
:100090000000EF92FF920F931F937B018C0120E0F1
:1000A00030E040E05FE40E94C50388238CF0C80183
:1000B000B70120E030E040E05FE40E94C1010E940F
:1000C000F5039B01AC01205030404040504806C031
:1000D000C801B7010E94F5039B01AC01B901CA0137
:1000E0001F910F91FF90EF900895A0E0B0E0EBE733
:1000F000F0E00C94DB0DDC012B01FA019C919230B5
:1001000008F439C1EB018881823008F433C194309E
:1001100069F4843009F02FC111969C91119789815F
:10012000981709F428C1A0E6B0E025C1843009F48D
:1001300021C18230A9F4923009F01DC19A01AD01AC
:1001400088E0EA010990AE01E90109929E0181501F
:10015000C1F7E201898111969C918923818308C1AD
:10016000923009F407C112962D903C901397EB0141
:100170008A819B811496AD90BD90CD90DC901797AD
:10018000EC80FD800E811F819101281B390BB90184
:1001900037FF04C066277727621B730B6032710537
:1001A0000CF061C0121613066CF537014801062EDB
:1001B00004C096948794779467940A94D2F721E0C8
:1001C00030E040E050E004C0220F331F441F551FB1
:1001D0006A95D2F721503040404050402E213F21B7
:1001E00040235123211531054105510521F021E01E
:1001F00030E040E050E079018A01E628F72808293C
:1002000019293CC0232BD1F1260E371E350146019A
:10021000062E04C096948794779467940A94D2F734
:1002200021E030E040E050E004C0220F331F441FC3
:10023000551F6A95D2F721503040404050402A2146
:100240003B214C215D21211531054105510521F04E
:1002500021E030E040E050E059016A01A628B728CB
:10026000C828D9280BC0821593052CF01C01AA249C
:10027000BB24650103C0EE24FF24870111969C91E5
:10028000D20111968C91981709F445C0992339F041
:10029000A80197012A193B094C095D0906C0A6016E
:1002A00095012E193F09400B510B57FD08C01182D3
:1002B0003382228224833583468357831DC081E0A5
:1002C00081833382228288279927DC01821B930B4A
:1002D000A40BB50B84839583A683B7830DC0220F2F
:1002E000331F441F551F24833583468357838281E0
:1002F000938101979383828324813581468157813D
:10030000DA01C9010197A109B1098F5F9F4FAF4F72
:10031000BF4328F30BC0918333822282EA0CFB1C7B
:100320000C1D1D1DE482F5820683178383E0808304
:10033000248135814681578157FF1AC0C901AA27F8
:1003400097FDA095BA2F81709070A070B0705695EF
:10035000479537952795822B932BA42BB52B848318
:100360009583A683B7838281938101969383828349
:10037000DF0101C0D201CD01CDB7DEB7E2E10C94BF
:10038000F70DA0E2B0E0E7ECF1E00C94E70D698333
:100390007A838B839C832D833E834F835887E9E048
:1003A000EE2EF12CEC0EFD1ECE010196B7010E943F
:1003B000E6058E010F5E1F4FCE010596B8010E9423
:1003C000E6058A8991E089278A8BC701B801AE01C9
:1003D000475E5F4F0E9475000E941105A096E6E0FF
:1003E0000C94030EA0E2B0E0E8EFF1E00C94E70D0E
:1003F00069837A838B839C832D833E834F835887C5
:10040000F9E0EF2EF12CEC0EFD1ECE010196B701A6
:100410000E94E6058E010F5E1F4FCE010596B801C2
:100420000E94E605C701B801AE01475E5F4F0E941A
:1004300075000E941105A096E6E00C94030EA0E260
:10044000B0E0E5E2F2E00C94DB0D69837A838B8304
:100450009C832D833E834F835887CE010196BE0136
:10046000675F7F4F0E94E605CE010596BE016F5E75
:100470007F4F0E94E6059985923088F08989823005
:10048000C8F0943019F4823051F404C0843029F457
:10049000923081F480E690E0C6C0923049F420E0CA
:1004A0009A858A89981321E02A87CE010996BBC0D4
:1004B000823049F420E09A858A89981321E02A8BBA
:1004C000CE014196B0C02D843E844F8458886D88FB
:1004D0007E888F88988CEE24FF248701AA24BB2471
:1004E000650140E050E060E070E0E0E0F0E0C10174
:1004F00081709070892BE9F0E60CF71C081D191D1E
:100500009A01AB012A0D3B1D4C1D5D1D80E090E062
:10051000A0E0B0E0E614F7040805190520F481E036
:1005200090E0A0E0B0E0BA01A901480F591F6A1F8E
:100530007B1FAA0CBB1CCC1CDD1C97FE08C081E0F5
:1005400090E0A0E0B0E0A82AB92ACA2ADB2A3196B6
:10055000E032F10549F0660C771C881C991C569412
:10056000479437942794C3CFFA85EA892B893C892D
:100570008B859C85280F391F2E5F3F4F17C0CA01FE
:1005800081709070892B61F016950795F794E79428
:1005900080E090E0A0E0B0E8E82AF92A0A2B1B2BC3
:1005A00076956795579547952F5F3F4F77FDE7CF36
:1005B0000CC0440F551F661F771F17FD4160EE0CDE
:1005C000FF1C001F111F21503040403090E05907A0
:1005D00090E0690790E4790760F32B8F3C8FDB0193
:1005E000CA018F779070A070B07080349105A1051A
:1005F000B10561F447FD0AC0E114F10401051105DC
:1006000029F0405C5F4F6F4F7F4F40781A8EFE1786
:1006100011F081E08A8F4D8F5E8F6F8F78A383E01A
:10062000898FCE0149960E941105A096E2E10C94B3
:10063000F70DA8E1B0E0EFE1F3E00C94E30D69837E
:100640007A838B839C832D833E834F835887B9E0C5
:10065000EB2EF12CEC0EFD1ECE010196B7010E948F
:10066000E6058E010F5E1F4FCE010596B8010E9470
:10067000E6052985223008F47EC03989323010F42D
:10068000B8017CC08A859A8989278A87243011F02D
:10069000223031F4231709F06EC060E670E06EC0BE
:1006A000343039F41D861E861F86188A1C861B86E8
:1006B00004C0323021F484E08987B7015FC02B8504
:1006C0003C858B899C89281B390B3C872B87ED84C3
:1006D000FE840F851889AD88BE88CF88D88CEA142F
:1006E000FB040C051D0540F4EE0CFF1C001F111F40
:1006F000215030403C872B8720E030E040E050E044
:1007000080E090E0A0E0B0E460E070E0EA14FB0478
:100710000C051D0540F0282B392B4A2B5B2BEA18C2
:10072000FB080C091D09B695A79597958795EE0CC2
:10073000FF1C001F111F6F5F7F4F6F31710531F775
:10074000DA01C9018F779070A070B0708034910584
:10075000A105B10561F427FD0AC0E114F10401050A
:10076000110529F0205C3F4F4F4F5F4F20782D87B8
:100770003E874F87588BBE01675F7F4FCB010E943A
:1007800011056896EAE00C94FF0DA8E1B0E0EBECEF
:10079000F3E00C94E70D69837A838B839C832D832C
:1007A0003E834F83588789E0E82EF12CEC0EFD1E26
:1007B000CE010196B7010E94E6058E010F5E1F4F24
:1007C000CE010596B8010E94E6058985823040F089
:1007D0008989823028F0C701B8010E945E0601C0F5
:1007E0008FEF6896E6E00C94030EACE0B0E0EBEF20
:1007F000F3E00C94EB0D69837A838B839C83CE01A9
:100800000196BE016B5F7F4F0E94E6058D818230AD
:1008100061F1823050F1843021F48E81882351F1CE
:100820002EC02F81388537FD20C06E812F313105D4
:100830001CF06623F9F023C08EE190E0821B930B3D
:1008400029853A854B855C8504C056954795379533
:1008500027958A95D2F76623B1F05095409530954B
:1008600021953F4F4F4F5F4F0EC020E030E040E0FA
:1008700050E009C02FEF3FEF4FEF5FE704C020E0EB
:1008800030E040E050E8B901CA012C96E2E00C9457
:10089000070EA8E0B0E0EFE4F4E00C94E30D7B0178
:1008A0008C01611571058105910519F482E0898338
:1008B00060C083E089838EE1C82ED12CDC82CB829C
:1008C000ED82FE820F831887C801B7010E94C2041F
:1008D000FC013197F7FF3BC0222733272E1B3F0B2C
:1008E00057016801022E04C0D694C794B794A79408
:1008F0000A94D2F740E050E060E070E081E090E0E0
:10090000A0E0B0E004C0880F991FAA1FBB1F2A9562
:10091000D2F70197A109B1098E219F21A023B1230C
:100920000097A105B10521F041E050E060E070E0E2
:100930004A295B296C297D294D835E836F837887E3
:100940008EE190E08E1B9F0B9C838B8312C03097AF
:1009500081F00E2E04C0EE0CFF1C001F111F0A9424
:10096000D2F7ED82FE820F831887CE1ADF0ADC826F
:10097000CB821A82CE0101960E9411052896EAE0E8
:100980000C94FF0DEF92FF920F931F937B018C014C
:1009900080E0E81680E0F80681E0080780E01807AC
:1009A00088F48FEFE816F1040105110531F028F005
:1009B00088E090E0A0E0B0E017C080E090E0A0E028
:1009C000B0E012C080E0E81680E0F80680E008079A
:1009D00081E0180728F088E190E0A0E0B0E004C0D2
:1009E00080E190E0A0E0B0E020E230E040E050E0C4
:1009F000281B390B4A0B5B0B04C016950795F7941F
:100A0000E7948A95D2F7F701E859FF4F8081281BB8
:100A1000310941095109C9011F910F91FF90EF90D0
:100A20000895DF92EF92FF920F931F93FC01E480F1
:100A3000F58006811781D1808081823048F480E082
:100A400090E0A0E1B0E0E82AF92A0A2B1B2BA5C010
:100A5000843009F49FC0823021F4EE24FF24870102
:100A600005C0E114F1040105110519F4E0E0F0E01E
:100A700096C0628173819FEF623879070CF05BC08A
:100A800022E83FEF261B370B2A3131052CF020E0FE
:100A900030E040E050E02AC0B801A701022E04C0B7
:100AA00076956795579547950A94D2F781E090E03F
:100AB000A0E0B0E004C0880F991FAA1FBB1F2A95B1
:100AC000D2F70197A109B1098E219F21A023B1235B
:100AD0000097A105B10521F081E090E0A0E0B0E031
:100AE0009A01AB01282B392B4A2B5B2BDA01C90168
:100AF0008F779070A070B07080349105A105B1051A
:100B000039F427FF09C0205C3F4F4F4F5F4F04C0AF
:100B1000215C3F4F4F4F5F4FE0E0F0E02030A0E01E
:100B20003A07A0E04A07A0E45A0710F0E1E0F0E03D
:100B300079018A0127C06038710564F5FB01E1582D
:100B4000FF4FD801C7018F779070A070B0708034CC
:100B50009105A105B10539F4E7FE0DC080E490E0F0
:100B6000A0E0B0E004C08FE390E0A0E0B0E0E80EC9
:100B7000F91E0A1F1B1F17FF05C016950795F7944E
:100B8000E794319687E016950795F794E7948A9550
:100B9000D1F705C0EE24FF248701EFEFF0E06E2FC0
:100BA000679566276795902F9F77D794DD24D79414
:100BB0008E2F8695492F462B582F5D29B701CA01E4
:100BC0001F910F91FF90EF90DF900895FC01DB01E2
:100BD000408151812281622F6F7770E0221F22278E
:100BE000221F9381892F880F822B282F30E0991F95
:100BF0009927991F11969C93119721153105A9F5F5
:100C0000411551056105710511F482E037C082E894
:100C10009FEF13969C938E9312979A01AB0167E016
:100C2000220F331F441F551F6A95D1F783E08C9321
:100C30000DC0220F331F441F551F12968D919C919A
:100C40001397019713969C938E931297203080E010
:100C5000380780E0480780E4580758F314962D932E
:100C60003D934D935C93179708952F3F310579F489
:100C7000411551056105710519F484E08C930895BF
:100C800064FF03C081E08C9312C01C9210C02F57E8
:100C9000304013963C932E93129783E08C9387E019
:100CA000440F551F661F771F8A95D1F770641496FD
:100CB0004D935D936D937C93179708951F93DC017B
:100CC000FB019C91923008F447C08081823008F487
:100CD00043C0943051F411961C91843099F5818170
:100CE000682F70E0611B71093FC0843021F09230A1
:100CF00031F48230B9F18181882389F12DC01196B8
:100D00001C9111978230F1F081811817D9F4129655
:100D10002D913C911397828193818217930794F0D0
:100D200028173907BCF014968D919D910D90BC91B8
:100D3000A02D2481358146815781281739074A071C
:100D40005B0718F4112341F00AC082179307A40728
:100D5000B50740F4112319F061E070E005C06FEFB2
:100D60007FEF02C060E070E0CB011F910895DF9338
:100D7000CF93CDB7DEB7A3E5B0E0E3E5F0E0808147
:100D8000877F8C93A3E5B0E0E3E5F0E080818F7B83
:100D90008C93CF91DF910895DF93CF93CDB7DEB7DA
:100DA000A3E5B0E0E3E5F0E08081887F8C93A3E5E4
:100DB000B0E0E3E5F0E0808185608C93CF91DF9136
:100DC0000895DF93CF93CDB7DEB762970FB6F8944F
:100DD000DEBF0FBECDBF6F87788B898B9A8B80E08B
:100DE00090E0A0E0B3E48B879C87AD87BE876B85DE
:100DF0007C858D859E8520E030E040E853E40E94AC
:100E00001F02DC01CB018F839887A987BA878F8562
:100E10009889A989BA8928EE33E040E050E0BC0106
:100E2000CD010E94BC0DDC01CB01BC01CD010E94B3
:100E30004904DC01CB01BC01CD012F8138854985F6
:100E40005A850E941903DC01CB01BC01CD010E942F
:100E50004900DC01CB019E838D838D819E819C01A5
:100E60003695279580E091E0821B930B9C838B83C2
:100E7000E2E5F0E08B8180831A82198215C0E8E5F3
:100E8000F0E08081882F90E0817090700097B9F336
:100E9000A8E5B0E0E8E5F0E0808181608C9389818D
:100EA0009A8101969A83898329813A818D819E81D5
:100EB0002817390720F362960FB6F894DEBF0FBEED
:100EC000CDBFCF91DF910895DF93CF93CDB7DEB73C
:100ED000E3E5F0E01082CF91DF910895DF93CF93A7
:100EE000CDB7DEB7AFE5B0E0EFE5F0E08081806838
:100EF0008C93CF91DF910895DF93CF93CDB7DEB779
:100F0000AFE5B0E0EFE5F0E080818F778C93CF9193
:100F1000DF910895DF93CF9300D00F92CDB7DEB766
:100F200089838981282F30E03B832A838A819B81B2
:100F30008130910589F02A813B8122303105A1F071
:100F40008A819B810097B9F4ABE5B0E0EBE5F0E076
:100F5000808180648C930FC0ABE5B0E0EBE5F0E0FE
:100F6000808180688C9307C0ABE5B0E0EBE5F0E0F2
:100F7000808180628C930F900F900F90CF91DF91C2
:100F80000895DF93CF93CDB7DEB728970FB6F894C7
:100F9000DEBF0FBECDBF89836A838981882309F0B4
:100FA0005CC08A81282F30E038872F838F81988515
:100FB0008430910529F12F8138852530310534F4AD
:100FC0008F8198858330910561F0C9C02F81388564
:100FD0002530310521F18F8198858630910571F199
:100FE000BEC0A5E5B0E0E5E5F0E080818E7F8C93A2
:100FF000A5E5B0E0E5E5F0E080818D7F8C93AFC0A2
:10100000A5E5B0E0E5E5F0E0808181608C93A5E5A1
:10101000B0E0E5E5F0E080818D7F8C93A0C0A5E590
:10102000B0E0E5E5F0E0808182608C93A5E5B0E07A
:10103000E5E5F0E080818E7F8C9391C0A5E5B0E07E
:10104000E5E5F0E0808181608C93A5E5B0E0E5E521
:10105000F0E0808182608C9382C08981813009F0C8
:101060005CC08A81282F30E03E832D838D819E8154
:101070008430910529F12D813E812530310534F4EC
:101080008D819E818330910561F069C02D813E8103
:101090002530310521F18D819E818630910571F1D8
:1010A0005EC0A5E5B0E0E5E5F0E080818B7F8C9344
:1010B000A5E5B0E0E5E5F0E08081877F8C934FC047
:1010C000A5E5B0E0E5E5F0E0808184608C93A5E5DE
:1010D000B0E0E5E5F0E08081877F8C9340C0A5E536
:1010E000B0E0E5E5F0E0808188608C93A5E5B0E0B4
:1010F000E5E5F0E080818B7F8C9331C0A5E5B0E021
:10110000E5E5F0E0808184608C93A5E5B0E0E5E55D
:10111000F0E0808188608C9322C089818230F9F46C
:101120008A81282F30E03C832B838B819C81853002
:10113000910531F02B813C812630310549F00FC0FB
:10114000A5E5B0E0E5E5F0E080818F7B8C9307C0FA
:10115000A5E5B0E0E5E5F0E0808180648C93289619
:101160000FB6F894DEBF0FBECDBFCF91DF910895CB
:10117000DF93CF9300D00F92CDB7DEB789838981FB
:10118000282F30E03B832A838A819B81813091051F
:1011900089F02A813B8122303105A1F08A819B812F
:1011A0000097B9F4ABE5B0E0EBE5F0E080818F7B30
:1011B0008C930FC0ABE5B0E0EBE5F0E080818F777A
:1011C0008C9307C0ABE5B0E0EBE5F0E080818F7D6C
:1011D0008C930F900F900F90CF91DF910895DF9334
:1011E000CF9300D000D00F92CDB7DEB789836A834A
:1011F0004B838981282F30E03D832C838C819D8116
:101200008234910509F448C02C813D812334310595
:1012100034F48C819D818134910571F0CBC02C8197
:101220003D812334310509F467C08C819D8184346C
:10123000910509F491C0BEC08B818823A9F4AAE36B
:10124000B0E0EAE3F0E08081482F8A81282F30E087
:1012500081E090E0022E02C0880F991F0A94E2F705
:10126000809584238C93A6C08B81813009F0A2C025
:10127000AAE3B0E0EAE3F0E08081482F8A81282FDA
:1012800030E081E090E0022E02C0880F991F0A949E
:10129000E2F7842B8C938EC08B818823A9F4A7E37B
:1012A000B0E0E7E3F0E08081482F8A81282F30E02A
:1012B00081E090E0022E02C0880F991F0A94E2F7A5
:1012C000809584238C9376C08B81813009F072C025
:1012D000A7E3B0E0E7E3F0E08081482F8A81282F80
:1012E00030E081E090E0022E02C0880F991F0A943E
:1012F000E2F7842B8C935EC08B818823A9F4A4E34E
:10130000B0E0E4E3F0E08081482F8A81282F30E0CC
:1013100081E090E0022E02C0880F991F0A94E2F744
:10132000809584238C9346C08B81813009F042C024
:10133000A4E3B0E0E4E3F0E08081482F8A81282F25
:1013400030E081E090E0022E02C0880F991F0A94DD
:10135000E2F7842B8C932EC08B818823A9F4A1E320
:10136000B0E0E1E3F0E08081482F8A81282F30E06F
:1013700081E090E0022E02C0880F991F0A94E2F7E4
:10138000809584238C9316C08B81813099F4A1E3DE
:10139000B0E0E1E3F0E08081482F8A81282F30E03F
:1013A00081E090E0022E02C0880F991F0A94E2F7B4
:1013B000842B8C930F900F900F900F900F90CF91E4
:1013C000DF910895DF93CF9300D000D00F92CDB777
:1013D000DEB789836A834B838981282F30E03D8380
:1013E0002C838C819D818234910509F448C02C8125
:1013F0003D812334310534F48C819D818134910504
:1014000071F0CBC02C813D812334310509F467C0D4
:101410008C819D818434910509F491C0BEC08B817B
:101420008130A1F4ABE3B0E0EBE3F0E08081482F42
:101430008A81282F30E081E090E0022E02C0880FE0
:10144000991F0A94E2F7842B8C93A7C08B81882381
:1014500009F0A3C0ABE3B0E0EBE3F0E08081482FFC
:101460008A81282F30E081E090E0022E02C0880FB0
:10147000991F0A94E2F7809584238C938EC08B8108
:101480008130A1F4A8E3B0E0E8E3F0E08081482FE8
:101490008A81282F30E081E090E0022E02C0880F80
:1014A000991F0A94E2F7842B8C9377C08B81882351
:1014B00009F073C0A8E3B0E0E8E3F0E08081482FD2
:1014C0008A81282F30E081E090E0022E02C0880F50
:1014D000991F0A94E2F7809584238C935EC08B81D8
:1014E0008130A1F4A5E3B0E0E5E3F0E08081482F8E
:1014F0008A81282F30E081E090E0022E02C0880F20
:10150000991F0A94E2F7842B8C9347C08B81882320
:1015100009F043C0A5E3B0E0E5E3F0E08081482FA7
:101520008A81282F30E081E090E0022E02C0880FEF
:10153000991F0A94E2F7809584238C932EC08B81A7
:101540008130A1F4A2E3B0E0E2E3F0E08081482F33
:101550008A81282F30E081E090E0022E02C0880FBF
:10156000991F0A94E2F7842B8C9317C08B818823F0
:10157000A1F4A2E3B0E0E2E3F0E08081482F8A81A9
:10158000282F30E081E090E0022E02C0880F991FE2
:101590000A94E2F7809584238C930F900F900F901C
:1015A0000F900F90CF91DF910895DF93CF9300D0EC
:1015B00000D0CDB7DEB789836A838981282F30E0D8
:1015C0003C832B838B819C818234910551F12B814B
:1015D0003C812334310534F48B819C818134910525
:1015E00061F05AC02B813C812334310571F18B812C
:1015F0009C8184349105E9F14FC0ABE3B0E0EBE3AB
:10160000F0E08081482F8A81282F30E081E090E04F
:10161000022E02C0880F991F0A94E2F784278C9348
:101620003BC0A8E3B0E0E8E3F0E08081482F8A8186
:10163000282F30E081E090E0022E02C0880F991F31
:101640000A94E2F784278C9327C0A5E3B0E0E5E392
:10165000F0E08081482F8A81282F30E081E090E0FF
:10166000022E02C0880F991F0A94E2F784278C93F8
:1016700013C0A2E3B0E0E2E3F0E08081482F8A816A
:10168000282F30E081E090E0022E02C0880F991FE1
:101690000A94E2F784278C930F900F900F900F908D
:1016A000CF91DF910895DF93CF9300D000D000D089
:1016B000CDB7DEB789836A835C834B838981282F0A
:1016C00030E03E832D834D815E814234510559F1D6
:1016D0008D819E818334910534F42D813E812134A6
:1016E000310569F05BC04D815E814334510579F16C
:1016F0008D819E818434910509F43DC04FC0E9E39A
:10170000F0E08081282F30E08A81882F90E0A901C5
:1017100002C0559547958A95E2F7CA018170EB8121
:10172000FC8180833BC0E6E3F0E08081282F30E03D
:101730008A81882F90E0A90102C0559547958A9526
:10174000E2F7CA018170EB81FC81808327C0E3E36B
:10175000F0E08081282F30E08A81882F90E0A90175
:1017600002C0559547958A95E2F7CA018170EB81D1
:10177000FC81808313C0E0E3F0E08081282F30E01B
:101780008A81882F90E0A90102C0559547958A95D6
:10179000E2F7CA018170EB81FC81808326960FB647
:1017A000F894DEBF0FBECDBFCF91DF910895DF93D8
:1017B000CF9300D0CDB7DEB789836A8389816A81F0
:1017C00041E00E94EF080F900F90CF91DF910895B4
:1017D000DF93CF9300D0CDB7DEB789836A83898149
:1017E0006A8141E00E94E2090F900F90CF91DF9152
:1017F0000895DF93CF9300D0CDB7DEB789836A8396
:1018000089816A8140E00E94E2090F900F90CF9198
:10181000DF910895DF93CF9300D0CDB7DEB78983F2
:101820006A8389816A810E94D50A0F900F90CF91B7
:10183000DF910895DF93CF9300D0CDB7DEB78983D2
:101840006A8389816A8140E00E94EF080F900F90BF
:10185000CF91DF910895DF93CF9300D000D0CDB723
:10186000DEB789836A835C834B832B813C818981CA
:101870006A81A9010E94530B0F900F900F900F9057
:10188000CF91DF910895DF93CF93CDB7DEB781E499
:1018900060E00E94D70B81E461E00E94D70B81E4F5
:1018A00062E00E94D70B82E460E00E94D70B82E4E2
:1018B00061E00E94D70B82E462E00E94D70B84E4CF
:1018C00062E00E941A0C0E946E0780E00E948A0764
:1018D00080E066E00E94C1070E94B7060E94CC0625
:1018E000CF91DF910895DF93CF93CDB7DEB70E94FC
:1018F000A80CFDCF1F920F920FB60F9211242F93B9
:101900003F934F935F936F937F938F939F93AF9387
:10191000BF93EF93FF93DF93CF93CDB7DEB70E94D2
:101920007C070E94F30C0E946E07CF91DF91FF911C
:10193000EF91BF91AF919F918F917F916F915F9147
:101940004F913F912F910F900FBE0F901F901895C0
:10195000DF93CF93CDB7DEB7109268013CC00E94F1
:10196000900D80916801882369F49091680181E469
:10197000692F0E94E80B68E873E180E090E00E9424
:10198000E10624C080916801813039F490916801AA
:1019900081E4692F0E94700D19C09091680181E463
:1019A000692F0E94E80B68E873E180E090E00E94F4
:1019B000E1060E94900D80916801982F915081E47A
:1019C000692F0E94700D8EEF8093680180916801ED
:1019D0008F5F8093680180916801833008F4BFCFE6
:1019E000CF91DF910895DF93CF93CDB7DEB780918C
:1019F0006801823089F40E94900D81E462E00E94C7
:101A0000E80B82E460E00E94E80B68E873E180E0A4
:101A100090E00E94E10624C080916801882321F0B3
:101A2000809168018130E1F40E94900D82E462E0CF
:101A30000E94E80B81E461E042E421E00E94470D4E
:101A40000E94900D81E462E00E94E80B82E460E075
:101A50000E94E80B68E873E180E090E00E94E106F4
:101A600081E462E00E94F90B81E461E042E421E05C
:101A70000E94470D0E94900D81E460E00E94E80BF7
:101A800082E462E00E94E80BCF91DF910895DF933A
:101A9000CF9300D000D00F92CDB7DEB78A836B838F
:101AA0004C832D83198211C08A816B810E94D50AD3
:101AB0008C816D810E94D50A64EF71E080E090E036
:101AC0000E94E10689818F5F898389818A3060F372
:101AD0000F900F900F900F900F90CF91DF9108957E
:101AE000DF93CF9300D00F92CDB7DEB78A836B839D
:101AF00019820DC08A816B810E94D50A64EF71E062
:101B000080E090E00E94E10689818F5F898389816E
:101B10008A3080F30F900F900F90CF91DF9108954E
:101B2000DF93CF93CDB7DEB781E460E00E94F90B7D
:101B300081E461E00E94F90B81E462E00E94F90B0C
:101B400082E460E00E94F90B82E461E00E94F90BFC
:101B500082E462E00E94F90BCF91DF910895DF9358
:101B6000CF93CDB7DEB70E94430C0E94730C80E088
:101B700090E0CF91DF910895629FD001739FF001B3
:101B8000829FE00DF11D649FE00DF11D929FF00D0D
:101B9000839FF00D749FF00D659FF00D9927729F44
:101BA000B00DE11DF91F639FB00DE11DF91FBD01CF
:101BB000CF01112408952F923F924F925F926F921E
:101BC0007F928F929F92AF92BF92CF92DF92EF92CD
:101BD000FF920F931F93CF93DF93CDB7DEB7CA1B4E
:101BE000DB0B0FB6F894DEBF0FBECDBF09942A8879
:101BF000398848885F846E847D848C849B84AA8421
:101C0000B984C884DF80EE80FD800C811B81AA81AD
:101C1000B981CE0FD11D0FB6F894DEBF0FBECDBF78
:081C2000ED010895F894FFCFD7
:101C2800000000000000000000010202030303039B
:101C38000404040404040404050505050505050554
:101C48000505050505050505060606060606060634
:101C5800060606060606060606060606060606061C
:101C68000606060606060606070707070707070704
:101C780007070707070707070707070707070707EC
:101C880007070707070707070707070707070707DC
:101C980007070707070707070707070707070707CC
:101CA80007070707070707070808080808080808B4
:101CB800080808080808080808080808080808089C
:101CC800080808080808080808080808080808088C
:101CD800080808080808080808080808080808087C
:101CE800080808080808080808080808080808086C
:101CF800080808080808080808080808080808085C
:101D0800080808080808080808080808080808084B
:101D1800080808080808080808080808080808083B
:081D2800080808080808080873
:00000001FF
