:100000000C942A000C9428010C943C000C943C00A5
:100010000C943C000C943C000C943C000C943C0070
:100020000C943C000C943C000C943C000C943C0060
:100030000C943C000C943C000C943C000C943C0050
:100040000C943C000C943C000C943C000C943C0040
:100050000C943C0011241FBECFE5D8E0DEBFCDBF1D
:1000600020E0A0E6B0E001C01D92A136B207E1F7A2
:100070000E9496010C945C030C94000060E081E403
:100080000E94500161E081E40E94500162E081E43D
:100090000E94500160E082E40E94500161E082E42D
:1000A0000E94500162E082E40E94500162E084E418
:1000B0000E944C010E94C70280E00E94CB0265E0D2
:1000C00080E00E94DD020E943203089560E081E436
:1000D0000E94580161E081E40E94580162E081E4DD
:1000E0000E94580160E082E40E94580161E082E4CD
:1000F0000E94580162E082E40E94580108950F9323
:100100000E94660005E021E042E461E081E40E9493
:1001100076010E94660060E082E40E9454010E9421
:100120004B030E94660060E081E40E94540162E09B
:1001300082E40E9454010E944B0362E082E40E9428
:1001400058010F910895CF93DF93C0E044C00E94FF
:100150003503C23009F56C2F81E40E94540181E01F
:10016000809360000E944B036C2F81E40E94580131
:10017000D1E00FC0D13061F445E06D2F81E40E94E1
:100180005F0182E0809360006D2F81E40E9458013E
:10019000D150D111EFCF1CC0C13069F445E06C2FB4
:1001A00081E40E945F0182E0809360006C2F81E413
:1001B0000E9458010DC06C2F81E40E94540182E01E
:1001C000809360000E944B036C2F81E40E945801D1
:1001D0000E945A03CF5FC33008F4B9CFDF91CF91AB
:1001E00008950F9380916000813019F0823081F082
:1001F0002AC00E94660062E081E40E94540160E02F
:1002000082E40E9454010E944B030E947F001BC0A5
:100210000E94660062E082E40E94540105E021E051
:1002200042E461E081E40E9476010E94660062E09F
:1002300081E40E94540160E082E40E9454010E9423
:100240004B030E947F000F9108950E94A300FDCFF1
:100250001F920F920FB60F9211242F933F934F933B
:100260005F936F937F938F939F93AF93BF93EF931E
:10027000FF930E94F100FF91EF91BF91AF919F9189
:100280008F917F916F915F914F913F912F910F903F
:100290000FBE0F901F90189540E00E949D01089599
:1002A00041E00E949D01089541E00E9417020895D7
:1002B00040E00E94170208950E94900208950F9353
:1002C0001F93CF93DF93082F162FD42FC0E007C0C2
:1002D000612F802F0E945C010E943C03CF5FCD17ED
:1002E000B8F3DF91CF911F910F910895EF92FF9294
:1002F0000F931F93CF93DF93E82EF62E142FD22F58
:10030000C0E00BC06F2D8E2D0E945C016D2F812FE0
:100310000E945C010E943C03CF5FC01798F3DF91FD
:10032000CF911F910F91FF90EF9008950E943E0092
:100330000E94250180E090E00895823431F118F4A4
:10034000813439F008958334E1F1843409F454C0E0
:10035000089541110CC02AB381E090E002C0880FDB
:10036000991F6A95E2F7809582238ABB08954130F0
:1003700009F05CC02AB381E090E002C0880F991FA9
:100380006A95E2F7822B8ABB089541110CC027B30E
:1003900081E090E002C0880F991F6A95E2F780958E
:1003A000822387BB0895413009F040C027B381E024
:1003B00090E002C0880F991F6A95E2F7822B87BBF5
:1003C000089541110CC024B381E090E002C0880F71
:1003D000991F6A95E2F78095822384BB0895413086
:1003E00029F524B381E090E002C0880F991F6A9537
:1003F000E2F7822B84BB089541110CC021B381E048
:1004000090E002C0880F991F6A95E2F780958223D9
:1004100081BB0895413051F421B381E090E002C0E6
:10042000880F991F6A95E2F7822B81BB0895823469
:1004300029F118F4813439F008958334D1F18434EA
:1004400009F453C00895413059F42BB381E090E092
:1004500002C0880F991F6A95E2F7822B8BBB089523
:1004600041115DC02BB381E090E002C0880F991F5D
:100470006A95E2F7809582238BBB0895413059F449
:1004800028B381E090E002C0880F991F6A95E2F7D7
:10049000822B88BB0895411142C028B381E090E0CF
:1004A00002C0880F991F6A95E2F78095822388BB66
:1004B0000895413061F425B381E090E0062E02C03A
:1004C000880F991F0A94E2F7822B85BB0EC0411159
:1004D0000CC025B381E090E0062E02C0880F991F62
:1004E0000A94E2F78095822385BB413059F422B308
:1004F00081E090E002C0880F991F6A95E2F7822B95
:1005000082BB089541110BC022B381E090E002C08C
:10051000880F991F6A95E2F78095822382BB089520
:100520008234A1F018F4813431F008958334C9F095
:10053000843411F108952BB381E090E002C0880F5C
:10054000991F6A95E2F782278BBB089528B381E053
:1005500090E002C0880F991F6A95E2F7822788BB56
:10056000089525B381E090E002C0880F991F6A9535
:10057000E2F7822785BB089522B381E090E002C0B4
:10058000880F991F6A95E2F7822782BB08958FB77B
:1005900080688FBF0895813041F018F0823049F0B3
:1005A00008958BB780648BBF08958BB780688BBF2D
:1005B00008958BB780628BBF0895811121C064308C
:1005C00069F018F4633031F00895653071F06630E9
:1005D00099F0089585B78C7F85BF089585B78160B0
:1005E00085BF85B78D7F85BF089585B7826085BF3C
:1005F00085B78E7F85BF089585B7836085BF0895D1
:10060000813009F5643069F018F4633031F00895F1
:10061000653071F0663099F0089585B7837F85BFA6
:10062000089585B7846085BF85B7877F85BF0895A6
:1006300085B7886085BF85B78B7F85BF089585B7EF
:100640008C6085BF0895823061F4653019F06630A2
:1006500029F0089585B78F7B85BF089585B780649D
:1006600085BF089513BE12BE089583B7856083BF0A
:1006700083B78D7F83BF089520E030E008C008B6BF
:1006800000FEFDCF88B7816088BF2F5F3F4F2430C9
:100690003105A8F3089520E030E008C008B600FE58
:1006A000FDCF88B7816088BF2F5F3F4F2331310571
:0C06B000A8F3089513BE0895F894FFCF3E
:00000001FF
